{"abi":[{"type":"constructor","inputs":[{"name":"tokenAddresses","type":"address[]","internalType":"address[]"},{"name":"priceFeedAddresses","type":"address[]","internalType":"address[]"},{"name":"dscAddress","type":"address","internalType":"address"}],"stateMutability":"nonpayable"},{"type":"function","name":"burnDsc","inputs":[{"name":"amount","type":"uint256","internalType":"uint256"}],"outputs":[],"stateMutability":"nonpayable"},{"type":"function","name":"calculateHealthFactor","inputs":[{"name":"totalDscMinted","type":"uint256","internalType":"uint256"},{"name":"collateralValueInUsd","type":"uint256","internalType":"uint256"}],"outputs":[{"name":"","type":"uint256","internalType":"uint256"}],"stateMutability":"pure"},{"type":"function","name":"depositCollateral","inputs":[{"name":"tokenCollateralAddress","type":"address","internalType":"address"},{"name":"amountCollateral","type":"uint256","internalType":"uint256"}],"outputs":[],"stateMutability":"nonpayable"},{"type":"function","name":"depositCollateralAndMintDsc","inputs":[{"name":"tokenCollateralAddress","type":"address","internalType":"address"},{"name":"amountCollateral","type":"uint256","internalType":"uint256"},{"name":"amountDscToMint","type":"uint256","internalType":"uint256"}],"outputs":[],"stateMutability":"nonpayable"},{"type":"function","name":"getAccountCollateralValue","inputs":[{"name":"user","type":"address","internalType":"address"}],"outputs":[{"name":"totalCollateralValueInUsd","type":"uint256","internalType":"uint256"}],"stateMutability":"view"},{"type":"function","name":"getAccountInformation","inputs":[{"name":"user","type":"address","internalType":"address"}],"outputs":[{"name":"totalDscMinted","type":"uint256","internalType":"uint256"},{"name":"collateralValueInUsd","type":"uint256","internalType":"uint256"}],"stateMutability":"view"},{"type":"function","name":"getAdditionalFeedPrecision","inputs":[],"outputs":[{"name":"","type":"uint256","internalType":"uint256"}],"stateMutability":"pure"},{"type":"function","name":"getCollateralBalanceOfUser","inputs":[{"name":"user","type":"address","internalType":"address"},{"name":"token","type":"address","internalType":"address"}],"outputs":[{"name":"","type":"uint256","internalType":"uint256"}],"stateMutability":"view"},{"type":"function","name":"getCollateralTokenPriceFeed","inputs":[{"name":"token","type":"address","internalType":"address"}],"outputs":[{"name":"","type":"address","internalType":"address"}],"stateMutability":"view"},{"type":"function","name":"getCollateralTokens","inputs":[],"outputs":[{"name":"","type":"address[]","internalType":"address[]"}],"stateMutability":"view"},{"type":"function","name":"getDsc","inputs":[],"outputs":[{"name":"","type":"address","internalType":"address"}],"stateMutability":"view"},{"type":"function","name":"getHealthFactor","inputs":[{"name":"user","type":"address","internalType":"address"}],"outputs":[{"name":"","type":"uint256","internalType":"uint256"}],"stateMutability":"view"},{"type":"function","name":"getLiquidationBonus","inputs":[],"outputs":[{"name":"","type":"uint256","internalType":"uint256"}],"stateMutability":"pure"},{"type":"function","name":"getLiquidationPrecision","inputs":[],"outputs":[{"name":"","type":"uint256","internalType":"uint256"}],"stateMutability":"pure"},{"type":"function","name":"getLiquidationThreshold","inputs":[],"outputs":[{"name":"","type":"uint256","internalType":"uint256"}],"stateMutability":"pure"},{"type":"function","name":"getMinHealthFactor","inputs":[],"outputs":[{"name":"","type":"uint256","internalType":"uint256"}],"stateMutability":"pure"},{"type":"function","name":"getPrecision","inputs":[],"outputs":[{"name":"","type":"uint256","internalType":"uint256"}],"stateMutability":"pure"},{"type":"function","name":"getTokenAmountFromUsd","inputs":[{"name":"token","type":"address","internalType":"address"},{"name":"usdAmountInWei","type":"uint256","internalType":"uint256"}],"outputs":[{"name":"","type":"uint256","internalType":"uint256"}],"stateMutability":"view"},{"type":"function","name":"getUsdValue","inputs":[{"name":"token","type":"address","internalType":"address"},{"name":"amount","type":"uint256","internalType":"uint256"}],"outputs":[{"name":"","type":"uint256","internalType":"uint256"}],"stateMutability":"view"},{"type":"function","name":"liquidate","inputs":[{"name":"collateral","type":"address","internalType":"address"},{"name":"user","type":"address","internalType":"address"},{"name":"debtToCover","type":"uint256","internalType":"uint256"}],"outputs":[],"stateMutability":"nonpayable"},{"type":"function","name":"mintDsc","inputs":[{"name":"amountDscToMint","type":"uint256","internalType":"uint256"}],"outputs":[],"stateMutability":"nonpayable"},{"type":"function","name":"redeemCollateral","inputs":[{"name":"tokenCollateralAddress","type":"address","internalType":"address"},{"name":"amountCollateral","type":"uint256","internalType":"uint256"}],"outputs":[],"stateMutability":"nonpayable"},{"type":"function","name":"redeemCollateralForDsc","inputs":[{"name":"tokenCollateralAddress","type":"address","internalType":"address"},{"name":"amountCollateral","type":"uint256","internalType":"uint256"},{"name":"amountDscToBurn","type":"uint256","internalType":"uint256"}],"outputs":[],"stateMutability":"nonpayable"},{"type":"event","name":"CollateralDeposited","inputs":[{"name":"user","type":"address","indexed":true,"internalType":"address"},{"name":"token","type":"address","indexed":true,"internalType":"address"},{"name":"amount","type":"uint256","indexed":true,"internalType":"uint256"}],"anonymous":false},{"type":"event","name":"CollateralRedeemed","inputs":[{"name":"redeemFrom","type":"address","indexed":true,"internalType":"address"},{"name":"redeemTo","type":"address","indexed":true,"internalType":"address"},{"name":"token","type":"address","indexed":false,"internalType":"address"},{"name":"amount","type":"uint256","indexed":false,"internalType":"uint256"}],"anonymous":false},{"type":"error","name":"DSCEngine__BreaksHealthFactor","inputs":[{"name":"healthFactorValue","type":"uint256","internalType":"uint256"}]},{"type":"error","name":"DSCEngine__HealthFactorNotImproved","inputs":[]},{"type":"error","name":"DSCEngine__HealthFactorOk","inputs":[]},{"type":"error","name":"DSCEngine__MintFailed","inputs":[]},{"type":"error","name":"DSCEngine__NeedsMoreThanZero","inputs":[]},{"type":"error","name":"DSCEngine__TokenAddressesAndPriceFeedAddressesAmountsDontMatch","inputs":[]},{"type":"error","name":"DSCEngine__TokenNotAllowed","inputs":[{"name":"token","type":"address","internalType":"address"}]},{"type":"error","name":"DSCEngine__TransferFailed","inputs":[]},{"type":"error","name":"ReentrancyGuardReentrantCall","inputs":[]}],"bytecode":{"object":"0x60a060405234801561000f575f5ffd5b506040516123f53803806123f5833981810160405281019061003191906103af565b60015f819055508151835114610073576040517f3b1767ce00000000000000000000000000000000000000000000000000000000815260040160405180910390fd5b5f5f90505b83518110156101b75782818151811061009457610093610437565b5b602002602001015160015f8684815181106100b2576100b1610437565b5b602002602001015173ffffffffffffffffffffffffffffffffffffffff1673ffffffffffffffffffffffffffffffffffffffff1681526020019081526020015f205f6101000a81548173ffffffffffffffffffffffffffffffffffffffff021916908373ffffffffffffffffffffffffffffffffffffffff160217905550600484828151811061014557610144610437565b5b6020026020010151908060018154018082558091505060019003905f5260205f20015f9091909190916101000a81548173ffffffffffffffffffffffffffffffffffffffff021916908373ffffffffffffffffffffffffffffffffffffffff1602179055508080600101915050610078565b508073ffffffffffffffffffffffffffffffffffffffff1660808173ffffffffffffffffffffffffffffffffffffffff1681525050505050610464565b5f604051905090565b5f5ffd5b5f5ffd5b5f5ffd5b5f601f19601f8301169050919050565b7f4e487b71000000000000000000000000000000000000000000000000000000005f52604160045260245ffd5b61024f82610209565b810181811067ffffffffffffffff8211171561026e5761026d610219565b5b80604052505050565b5f6102806101f4565b905061028c8282610246565b919050565b5f67ffffffffffffffff8211156102ab576102aa610219565b5b602082029050602081019050919050565b5f5ffd5b5f73ffffffffffffffffffffffffffffffffffffffff82169050919050565b5f6102e9826102c0565b9050919050565b6102f9816102df565b8114610303575f5ffd5b50565b5f81519050610314816102f0565b92915050565b5f61032c61032784610291565b610277565b9050808382526020820190506020840283018581111561034f5761034e6102bc565b5b835b8181101561037857806103648882610306565b845260208401935050602081019050610351565b5050509392505050565b5f82601f83011261039657610395610205565b5b81516103a684826020860161031a565b91505092915050565b5f5f5f606084860312156103c6576103c56101fd565b5b5f84015167ffffffffffffffff8111156103e3576103e2610201565b5b6103ef86828701610382565b935050602084015167ffffffffffffffff8111156104105761040f610201565b5b61041c86828701610382565b925050604061042d86828701610306565b9150509250925092565b7f4e487b71000000000000000000000000000000000000000000000000000000005f52603260045260245ffd5b608051611f646104915f395f8181610f340152818161101d015281816114cd01526115a30152611f645ff3fe608060405234801561000f575f5ffd5b506004361061014b575f3560e01c80639670c0bc116100c1578063c9b7c3271161007a578063c9b7c327146103c6578063deb8e018146103e2578063e90db8a314610400578063f419ea9c1461041c578063f687660814610438578063fe6bcd7c146104545761014b565b80639670c0bc146102f25780639acd81b314610310578063a5d5db0c1461032c578063afea2e4814610348578063b58eb63f14610378578063c660d112146103965761014b565b806359aa9e721161011357806359aa9e72146102195780636c8102c0146102375780637be564fc146102555780637d1a4450146102865780638c1ae6c8146102b65780638f63d667146102d45761014b565b806301f728841461014f5780631c08adda1461017f57806326c01303146101af57806331e92b83146101cb5780634ae9b8bc146101fb575b5f5ffd5b6101696004803603810190610164919061184b565b610484565b6040516101769190611898565b60405180910390f35b6101996004803603810190610194919061190b565b610497565b6040516101a69190611945565b60405180910390f35b6101c960048036038101906101c4919061195e565b6104fc565b005b6101e560048036038101906101e091906119ae565b610704565b6040516101f29190611898565b60405180910390f35b610203610786565b6040516102109190611898565b60405180910390f35b61022161078e565b60405161022e9190611898565b60405180910390f35b61023f610796565b60405161024c9190611898565b60405180910390f35b61026f600480360381019061026a919061190b565b61079e565b60405161027d9291906119ec565b60405180910390f35b6102a0600480360381019061029b919061190b565b6107b2565b6040516102ad9190611898565b60405180910390f35b6102be6108ac565b6040516102cb9190611898565b60405180910390f35b6102dc6108bb565b6040516102e99190611898565b60405180910390f35b6102fa6108c7565b6040516103079190611898565b60405180910390f35b61032a60048036038101906103259190611a13565b6108d6565b005b61034660048036038101906103419190611a13565b610a08565b005b610362600480360381019061035d9190611a13565b610cc6565b60405161036f9190611898565b60405180910390f35b610380610df5565b60405161038d9190611b08565b60405180910390f35b6103b060048036038101906103ab9190611a13565b610e80565b6040516103bd9190611898565b60405180910390f35b6103e060048036038101906103db9190611b28565b610e93565b005b6103ea61101a565b6040516103f79190611945565b60405180910390f35b61041a60048036038101906104159190611b53565b611041565b005b61043660048036038101906104319190611b53565b611059565b005b610452600480360381019061044d9190611b28565b611187565b005b61046e6004803603810190610469919061190b565b6111d9565b60405161047b9190611898565b60405180910390f35b5f61048f83836111ea565b905092915050565b5f60015f8373ffffffffffffffffffffffffffffffffffffffff1673ffffffffffffffffffffffffffffffffffffffff1681526020019081526020015f205f9054906101000a900473ffffffffffffffffffffffffffffffffffffffff169050919050565b825f73ffffffffffffffffffffffffffffffffffffffff1660015f8373ffffffffffffffffffffffffffffffffffffffff1673ffffffffffffffffffffffffffffffffffffffff1681526020019081526020015f205f9054906101000a900473ffffffffffffffffffffffffffffffffffffffff1673ffffffffffffffffffffffffffffffffffffffff16036105c957806040517fcf3935950000000000000000000000000000000000000000000000000000000081526004016105c09190611945565b60405180910390fd5b815f8103610603576040517fcb1d3f7d00000000000000000000000000000000000000000000000000000000815260040160405180910390fd5b61060b61125f565b5f610615856112a3565b9050670de0b6b3a76400008110610658576040517f32c072f000000000000000000000000000000000000000000000000000000000815260040160405180910390fd5b5f6106638786610cc6565b90505f6064600a836106759190611bd0565b61067f9190611c3e565b90506106988882846106919190611c6e565b89336112c6565b6106a3868833611477565b5f6106ad886112a3565b90508381116106e8576040517f7c28362000000000000000000000000000000000000000000000000000000000815260040160405180910390fd5b6106f13361162d565b505050506106fd61168a565b5050505050565b5f60025f8473ffffffffffffffffffffffffffffffffffffffff1673ffffffffffffffffffffffffffffffffffffffff1681526020019081526020015f205f8373ffffffffffffffffffffffffffffffffffffffff1673ffffffffffffffffffffffffffffffffffffffff1681526020019081526020015f2054905092915050565b5f6032905090565b5f600a905090565b5f6064905090565b5f5f6107a983611693565b91509150915091565b5f5f5f90505b6004805490508110156108a6575f600482815481106107da576107d9611ca1565b5b905f5260205f20015f9054906101000a900473ffffffffffffffffffffffffffffffffffffffff1690505f60025f8673ffffffffffffffffffffffffffffffffffffffff1673ffffffffffffffffffffffffffffffffffffffff1681526020019081526020015f205f8373ffffffffffffffffffffffffffffffffffffffff1673ffffffffffffffffffffffffffffffffffffffff1681526020019081526020015f2054905061088a82826116e5565b846108959190611c6e565b9350505080806001019150506107b8565b50919050565b5f670de0b6b3a7640000905090565b5f6402540be400905090565b5f670de0b6b3a7640000905090565b805f8103610910576040517fcb1d3f7d00000000000000000000000000000000000000000000000000000000815260040160405180910390fd5b61091861125f565b825f73ffffffffffffffffffffffffffffffffffffffff1660015f8373ffffffffffffffffffffffffffffffffffffffff1673ffffffffffffffffffffffffffffffffffffffff1681526020019081526020015f205f9054906101000a900473ffffffffffffffffffffffffffffffffffffffff1673ffffffffffffffffffffffffffffffffffffffff16036109e557806040517fcf3935950000000000000000000000000000000000000000000000000000000081526004016109dc9190611945565b60405180910390fd5b6109f1848433336112c6565b6109fa3361162d565b50610a0361168a565b505050565b805f8103610a42576040517fcb1d3f7d00000000000000000000000000000000000000000000000000000000815260040160405180910390fd5b610a4a61125f565b825f73ffffffffffffffffffffffffffffffffffffffff1660015f8373ffffffffffffffffffffffffffffffffffffffff1673ffffffffffffffffffffffffffffffffffffffff1681526020019081526020015f205f9054906101000a900473ffffffffffffffffffffffffffffffffffffffff1673ffffffffffffffffffffffffffffffffffffffff1603610b1757806040517fcf393595000000000000000000000000000000000000000000000000000000008152600401610b0e9190611945565b60405180910390fd5b8260025f3373ffffffffffffffffffffffffffffffffffffffff1673ffffffffffffffffffffffffffffffffffffffff1681526020019081526020015f205f8673ffffffffffffffffffffffffffffffffffffffff1673ffffffffffffffffffffffffffffffffffffffff1681526020019081526020015f205f828254610b9e9190611c6e565b92505081905550828473ffffffffffffffffffffffffffffffffffffffff163373ffffffffffffffffffffffffffffffffffffffff167ff1c0dd7e9b98bbff859029005ef89b127af049cd18df1a8d79f0b7e019911e5660405160405180910390a45f8473ffffffffffffffffffffffffffffffffffffffff166323b872dd3330876040518463ffffffff1660e01b8152600401610c3e93929190611cce565b6020604051808303815f875af1158015610c5a573d5f5f3e3d5ffd5b505050506040513d601f19601f82011682018060405250810190610c7e9190611d38565b905080610cb7576040517f4dc34d1700000000000000000000000000000000000000000000000000000000815260040160405180910390fd5b5050610cc161168a565b505050565b5f5f60015f8573ffffffffffffffffffffffffffffffffffffffff1673ffffffffffffffffffffffffffffffffffffffff1681526020019081526020015f205f9054906101000a900473ffffffffffffffffffffffffffffffffffffffff1690505f8173ffffffffffffffffffffffffffffffffffffffff1673__$1f06ac8d622ce42796cee98ba1044ce165$__632ba1c96a90916040518263ffffffff1660e01b8152600401610d779190611dbe565b60a060405180830381865af4158015610d92573d5f5f3e3d5ffd5b505050506040513d601f19601f82011682018060405250810190610db69190611e5d565b5050509150506402540be40081610dcd9190611bd0565b670de0b6b3a764000085610de19190611bd0565b610deb9190611c3e565b9250505092915050565b60606004805480602002602001604051908101604052809291908181526020018280548015610e7657602002820191905f5260205f20905b815f9054906101000a900473ffffffffffffffffffffffffffffffffffffffff1673ffffffffffffffffffffffffffffffffffffffff1681526020019060010190808311610e2d575b5050505050905090565b5f610e8b83836116e5565b905092915050565b805f8103610ecd576040517fcb1d3f7d00000000000000000000000000000000000000000000000000000000815260040160405180910390fd5b610ed561125f565b8160035f3373ffffffffffffffffffffffffffffffffffffffff1673ffffffffffffffffffffffffffffffffffffffff1681526020019081526020015f205f828254610f219190611c6e565b92505081905550610f313361162d565b5f7f000000000000000000000000000000000000000000000000000000000000000073ffffffffffffffffffffffffffffffffffffffff166340c10f1933856040518363ffffffff1660e01b8152600401610f8d929190611ed4565b6020604051808303815f875af1158015610fa9573d5f5f3e3d5ffd5b505050506040513d601f19601f82011682018060405250810190610fcd9190611d38565b9050600115158115151461100d576040517f30eb0fc900000000000000000000000000000000000000000000000000000000815260040160405180910390fd5b5061101661168a565b5050565b5f7f0000000000000000000000000000000000000000000000000000000000000000905090565b61104b8383610a08565b61105481610e93565b505050565b815f8103611093576040517fcb1d3f7d00000000000000000000000000000000000000000000000000000000815260040160405180910390fd5b835f73ffffffffffffffffffffffffffffffffffffffff1660015f8373ffffffffffffffffffffffffffffffffffffffff1673ffffffffffffffffffffffffffffffffffffffff1681526020019081526020015f205f9054906101000a900473ffffffffffffffffffffffffffffffffffffffff1673ffffffffffffffffffffffffffffffffffffffff160361116057806040517fcf3935950000000000000000000000000000000000000000000000000000000081526004016111579190611945565b60405180910390fd5b61116b833333611477565b611177858533336112c6565b6111803361162d565b5050505050565b805f81036111c1576040517fcb1d3f7d00000000000000000000000000000000000000000000000000000000815260040160405180910390fd5b6111cc823333611477565b6111d53361162d565b5050565b5f6111e3826112a3565b9050919050565b5f5f830361121a577fffffffffffffffffffffffffffffffffffffffffffffffffffffffffffffffff9050611259565b5f606460328461122a9190611bd0565b6112349190611c3e565b905083670de0b6b3a76400008261124b9190611bd0565b6112559190611c3e565b9150505b92915050565b60025f540361129a576040517f3ee5aeb500000000000000000000000000000000000000000000000000000000815260040160405180910390fd5b60025f81905550565b5f5f5f6112af84611693565b915091506112bd82826111ea565b92505050919050565b8260025f8473ffffffffffffffffffffffffffffffffffffffff1673ffffffffffffffffffffffffffffffffffffffff1681526020019081526020015f205f8673ffffffffffffffffffffffffffffffffffffffff1673ffffffffffffffffffffffffffffffffffffffff1681526020019081526020015f205f82825461134d9190611efb565b925050819055508073ffffffffffffffffffffffffffffffffffffffff168273ffffffffffffffffffffffffffffffffffffffff167fb292db12b8dfa23b760ee5e3bd1d3be184cd8f0eeeacd27ce120d4de4e4721f686866040516113b3929190611ed4565b60405180910390a35f8473ffffffffffffffffffffffffffffffffffffffff1663a9059cbb83866040518363ffffffff1660e01b81526004016113f7929190611ed4565b6020604051808303815f875af1158015611413573d5f5f3e3d5ffd5b505050506040513d601f19601f820116820180604052508101906114379190611d38565b905080611470576040517f4dc34d1700000000000000000000000000000000000000000000000000000000815260040160405180910390fd5b5050505050565b8260035f8473ffffffffffffffffffffffffffffffffffffffff1673ffffffffffffffffffffffffffffffffffffffff1681526020019081526020015f205f8282546114c39190611efb565b925050819055505f7f000000000000000000000000000000000000000000000000000000000000000073ffffffffffffffffffffffffffffffffffffffff166323b872dd8330876040518463ffffffff1660e01b815260040161152893929190611cce565b6020604051808303815f875af1158015611544573d5f5f3e3d5ffd5b505050506040513d601f19601f820116820180604052508101906115689190611d38565b9050806115a1576040517f4dc34d1700000000000000000000000000000000000000000000000000000000815260040160405180910390fd5b7f000000000000000000000000000000000000000000000000000000000000000073ffffffffffffffffffffffffffffffffffffffff166342966c68856040518263ffffffff1660e01b81526004016115fa9190611898565b5f604051808303815f87803b158015611611575f5ffd5b505af1158015611623573d5f5f3e3d5ffd5b5050505050505050565b5f611637826112a3565b9050670de0b6b3a764000081101561168657806040517fe580cc6100000000000000000000000000000000000000000000000000000000815260040161167d9190611898565b60405180910390fd5b5050565b60015f81905550565b5f5f60035f8473ffffffffffffffffffffffffffffffffffffffff1673ffffffffffffffffffffffffffffffffffffffff1681526020019081526020015f205491506116de836107b2565b9050915091565b5f5f60015f8573ffffffffffffffffffffffffffffffffffffffff1673ffffffffffffffffffffffffffffffffffffffff1681526020019081526020015f205f9054906101000a900473ffffffffffffffffffffffffffffffffffffffff1690505f8173ffffffffffffffffffffffffffffffffffffffff1673__$1f06ac8d622ce42796cee98ba1044ce165$__632ba1c96a90916040518263ffffffff1660e01b81526004016117969190611dbe565b60a060405180830381865af41580156117b1573d5f5f3e3d5ffd5b505050506040513d601f19601f820116820180604052508101906117d59190611e5d565b505050915050670de0b6b3a7640000846402540be400836117f69190611bd0565b6118009190611bd0565b61180a9190611c3e565b9250505092915050565b5f5ffd5b5f819050919050565b61182a81611818565b8114611834575f5ffd5b50565b5f8135905061184581611821565b92915050565b5f5f6040838503121561186157611860611814565b5b5f61186e85828601611837565b925050602061187f85828601611837565b9150509250929050565b61189281611818565b82525050565b5f6020820190506118ab5f830184611889565b92915050565b5f73ffffffffffffffffffffffffffffffffffffffff82169050919050565b5f6118da826118b1565b9050919050565b6118ea816118d0565b81146118f4575f5ffd5b50565b5f81359050611905816118e1565b92915050565b5f602082840312156119205761191f611814565b5b5f61192d848285016118f7565b91505092915050565b61193f816118d0565b82525050565b5f6020820190506119585f830184611936565b92915050565b5f5f5f6060848603121561197557611974611814565b5b5f611982868287016118f7565b9350506020611993868287016118f7565b92505060406119a486828701611837565b9150509250925092565b5f5f604083850312156119c4576119c3611814565b5b5f6119d1858286016118f7565b92505060206119e2858286016118f7565b9150509250929050565b5f6040820190506119ff5f830185611889565b611a0c6020830184611889565b9392505050565b5f5f60408385031215611a2957611a28611814565b5b5f611a36858286016118f7565b9250506020611a4785828601611837565b9150509250929050565b5f81519050919050565b5f82825260208201905092915050565b5f819050602082019050919050565b611a83816118d0565b82525050565b5f611a948383611a7a565b60208301905092915050565b5f602082019050919050565b5f611ab682611a51565b611ac08185611a5b565b9350611acb83611a6b565b805f5b83811015611afb578151611ae28882611a89565b9750611aed83611aa0565b925050600181019050611ace565b5085935050505092915050565b5f6020820190508181035f830152611b208184611aac565b905092915050565b5f60208284031215611b3d57611b3c611814565b5b5f611b4a84828501611837565b91505092915050565b5f5f5f60608486031215611b6a57611b69611814565b5b5f611b77868287016118f7565b9350506020611b8886828701611837565b9250506040611b9986828701611837565b9150509250925092565b7f4e487b71000000000000000000000000000000000000000000000000000000005f52601160045260245ffd5b5f611bda82611818565b9150611be583611818565b9250828202611bf381611818565b91508282048414831517611c0a57611c09611ba3565b5b5092915050565b7f4e487b71000000000000000000000000000000000000000000000000000000005f52601260045260245ffd5b5f611c4882611818565b9150611c5383611818565b925082611c6357611c62611c11565b5b828204905092915050565b5f611c7882611818565b9150611c8383611818565b9250828201905080821115611c9b57611c9a611ba3565b5b92915050565b7f4e487b71000000000000000000000000000000000000000000000000000000005f52603260045260245ffd5b5f606082019050611ce15f830186611936565b611cee6020830185611936565b611cfb6040830184611889565b949350505050565b5f8115159050919050565b611d1781611d03565b8114611d21575f5ffd5b50565b5f81519050611d3281611d0e565b92915050565b5f60208284031215611d4d57611d4c611814565b5b5f611d5a84828501611d24565b91505092915050565b5f819050919050565b5f611d86611d81611d7c846118b1565b611d63565b6118b1565b9050919050565b5f611d9782611d6c565b9050919050565b5f611da882611d8d565b9050919050565b611db881611d9e565b82525050565b5f602082019050611dd15f830184611daf565b92915050565b5f69ffffffffffffffffffff82169050919050565b611df581611dd7565b8114611dff575f5ffd5b50565b5f81519050611e1081611dec565b92915050565b5f819050919050565b611e2881611e16565b8114611e32575f5ffd5b50565b5f81519050611e4381611e1f565b92915050565b5f81519050611e5781611821565b92915050565b5f5f5f5f5f60a08688031215611e7657611e75611814565b5b5f611e8388828901611e02565b9550506020611e9488828901611e35565b9450506040611ea588828901611e49565b9350506060611eb688828901611e49565b9250506080611ec788828901611e02565b9150509295509295909350565b5f604082019050611ee75f830185611936565b611ef46020830184611889565b9392505050565b5f611f0582611818565b9150611f1083611818565b9250828203905081811115611f2857611f27611ba3565b5b9291505056fea264697066735822122046c5505dfb75774a73d26d77214abded873cb2c95599a76a7e286c8f3516ffed64736f6c634300081d0033","linkReferences":{"src/libraries/OracleLib.sol":{"OracleLib":[{"start":4562,"length":20},{"start":7153,"length":20}]}}},"methodIdentifiers":{"burnDsc(uint256)":"f6876608","calculateHealthFactor(uint256,uint256)":"01f72884","depositCollateral(address,uint256)":"a5d5db0c","depositCollateralAndMintDsc(address,uint256,uint256)":"e90db8a3","getAccountCollateralValue(address)":"7d1a4450","getAccountInformation(address)":"7be564fc","getAdditionalFeedPrecision()":"8f63d667","getCollateralBalanceOfUser(address,address)":"31e92b83","getCollateralTokenPriceFeed(address)":"1c08adda","getCollateralTokens()":"b58eb63f","getDsc()":"deb8e018","getHealthFactor(address)":"fe6bcd7c","getLiquidationBonus()":"59aa9e72","getLiquidationPrecision()":"6c8102c0","getLiquidationThreshold()":"4ae9b8bc","getMinHealthFactor()":"8c1ae6c8","getPrecision()":"9670c0bc","getTokenAmountFromUsd(address,uint256)":"afea2e48","getUsdValue(address,uint256)":"c660d112","liquidate(address,address,uint256)":"26c01303","mintDsc(uint256)":"c9b7c327","redeemCollateral(address,uint256)":"9acd81b3","redeemCollateralForDsc(address,uint256,uint256)":"f419ea9c"},"id":30}