{"abi":[{"type":"function","name":"getTimeout","inputs":[{"name":"","type":"AggregatorV3Interface","internalType":"contract AggregatorV3Interface"}],"outputs":[{"name":"","type":"uint256","internalType":"uint256"}],"stateMutability":"pure"},{"type":"function","name":"staleCheckLatestRoundData","inputs":[{"name":"chainlinkFeed","type":"AggregatorV3Interface","internalType":"contract AggregatorV3Interface"}],"outputs":[{"name":"","type":"uint80","internalType":"uint80"},{"name":"","type":"int256","internalType":"int256"},{"name":"","type":"uint256","internalType":"uint256"},{"name":"","type":"uint256","internalType":"uint256"},{"name":"","type":"uint80","internalType":"uint80"}],"stateMutability":"view"},{"type":"error","name":"OracleLib__StalePrice","inputs":[]}],"bytecode":{"object":"0x6104db61004d600b8282823980515f1a6073146041577f4e487b71000000000000000000000000000000000000000000000000000000005f525f60045260245ffd5b305f52607381538281f3fe730000000000000000000000000000000000000000301460806040526004361061003f575f3560e01c80632ba1c96a1461004357806347096f8114610077575b5f5ffd5b61005d60048036038101906100589190610267565b6100a7565b60405161006e9594939291906102e6565b60405180910390f35b610091600480360381019061008c9190610267565b6101ed565b60405161009e9190610337565b60405180910390f35b5f5f5f5f5f5f5f5f5f5f8a73ffffffffffffffffffffffffffffffffffffffff1663feaf968c6040518163ffffffff1660e01b815260040160a060405180830381865afa1580156100fa573d5f5f3e3d5ffd5b505050506040513d601f19601f8201168201806040525081019061011e91906103ce565b945094509450945094505f82148061014d57508469ffffffffffffffffffff168169ffffffffffffffffffff16105b15610184576040517fc4a1093a00000000000000000000000000000000000000000000000000000000815260040160405180910390fd5b5f82426101919190610472565b9050612a308111156101cf576040517fc4a1093a00000000000000000000000000000000000000000000000000000000815260040160405180910390fd5b85858585859a509a509a509a509a5050505050505091939590929450565b5f612a309050919050565b5f5ffd5b5f73ffffffffffffffffffffffffffffffffffffffff82169050919050565b5f610225826101fc565b9050919050565b5f6102368261021b565b9050919050565b6102468161022c565b8114610250575f5ffd5b50565b5f813590506102618161023d565b92915050565b5f6020828403121561027c5761027b6101f8565b5b5f61028984828501610253565b91505092915050565b5f69ffffffffffffffffffff82169050919050565b6102b081610292565b82525050565b5f819050919050565b6102c8816102b6565b82525050565b5f819050919050565b6102e0816102ce565b82525050565b5f60a0820190506102f95f8301886102a7565b61030660208301876102bf565b61031360408301866102d7565b61032060608301856102d7565b61032d60808301846102a7565b9695505050505050565b5f60208201905061034a5f8301846102d7565b92915050565b61035981610292565b8114610363575f5ffd5b50565b5f8151905061037481610350565b92915050565b610383816102b6565b811461038d575f5ffd5b50565b5f8151905061039e8161037a565b92915050565b6103ad816102ce565b81146103b7575f5ffd5b50565b5f815190506103c8816103a4565b92915050565b5f5f5f5f5f60a086880312156103e7576103e66101f8565b5b5f6103f488828901610366565b955050602061040588828901610390565b9450506040610416888289016103ba565b9350506060610427888289016103ba565b925050608061043888828901610366565b9150509295509295909350565b7f4e487b71000000000000000000000000000000000000000000000000000000005f52601160045260245ffd5b5f61047c826102ce565b9150610487836102ce565b925082820390508181111561049f5761049e610445565b5b9291505056fea2646970667358221220586a8dece36227c2d30e280392a79eca7c97d4ffbc0e86033bd2ac43b093a50164736f6c634300081d0033","linkReferences":{}},"methodIdentifiers":{"getTimeout(AggregatorV3Interface)":"47096f81","staleCheckLatestRoundData(AggregatorV3Interface)":"2ba1c96a"},"id":32}